:020000040800F2
:10000000580C0020C90A000817010008190100084F
:100010001D01000821010008250100080000000062
:10002000000000000000000000000000290100089E
:100030002B010008000000002D0100082F0100081E
:10004000E30A0008E30A0008E30A0008E30A0008DC
:10005000E30A0008E30A0008E30A0008E30A0008CC
:10006000E30A0008E30A0008E30A0008E30A0008BC
:10007000E30A0008E30A0008E30A0008E30A0008AC
:10008000E30A0008E30A0008E30A0008E30A00089C
:10009000E30A0008E30A0008E30A0008E30A00088C
:1000A000E30A0008E30A0008E30A0008E30A00087C
:1000B000E30A0008E30A0008E30A0008E30A00086C
:1000C000E30A0008E30A0008E30A0008E30A00085C
:1000D000E30A000885020008E30A0008E30A0008B2
:1000E000E30A0008E30A0008E30A0008E30A00083C
:1000F000E30A0008DFF80CD001F0D6FA0048004708
:1001000009010008580C002010B500F011F800F0AB
:100110000FF9002010BD704700BFFEE700BFFEE7EB
:1001200000BFFEE700BFFEE77047704770477047AB
:1001300010B5642000F00CF90A2000F009F90A203B
:1001400000F006F900F011F80A2000F001F90A2089
:1001500000F0FEF810BD000010B5044622464FF432
:100160008051134800F00CFE10BD1CB50121022087
:1001700000F0B8FF4FF48050009001208DF804008B
:1001800000208DF8060002208DF8050001208DF872
:1001900007006946064800F07BFD0120FFF7DCFF01
:1001A0001CBD10B54FF48051014800F0F0FD10BDAA
:1001B0000004024000B587B00121084600F092FF1C
:1001C0000121880300F09FFF02208DF80800002025
:1001D0008DF80A0001208DF80B0003208DF809002E
:1001E0004FF40070019001A94B4800F051FD4FF40D
:1001F0008060019001A9484800F04AFD07220921CA
:10020000454800F0C8FD07220A21434800F0C3FD1D
:100210004FF4E13003900020ADF81000ADF812006B
:10022000ADF81400ADF818000C20ADF8160003A9C5
:100230003A4801F06EF80121384801F0EFF8012248
:1002400040F22551354801F09FF925208DF8000036
:1002500003208DF8010002208DF8020001208DF8A6
:100260000300684600F047FC4FF480622C492D489B
:1002700000F08AF84FF480622B492C4800F084F893
:1002800007B000BD08B540F22771244801F0B7F966
:10029000012811D101226946224800F09AF828B1BC
:1002A0009DF800101D4801F0E4F805E0002240F23E
:1002B00027711A4801F068F940F22551174801F0FA
:1002C0009EF9012809D1154801F0D7F8C0B2009075
:1002D00001226946154800F05EF808BD10B50122FC
:1002E00040F227710D4801F04FF910BD70B504467A
:1002F0000D462A4621460B4800F04DF8FFF7EEFF69
:10030000012070BD70B504460D462A4621460748B7
:1003100000F05FF880B270BD00000240003801407C
:100320004800002038000020580400204804002025
:1003300070470021002200BF07E0002201E0531CAB
:100340009AB2062AFBDB4B1C99B28142F5DB70475F
:1003500030B50446002500BF05E04FF47A70FFF782
:10036000E8FF681C85B2A542F7DB30BD30B5044616
:10037000002500BF05E04FF47A70FFF7E9FF681C25
:1003800085B2A542F7DB30BD03461A60D9605960DB
:1003900099600020704770B5034614460022002083
:1003A0009A6800BF11E0DD681E682E44551C2A467D
:1003B000AE4200D8DA685D68954200D107E011F8D6
:1003C000015B9E6835709A60401CA042EBD300BF71
:1003D00070BDF0B5034600200EE05C68651C5D60F2
:1003E00027780546401C4F55DC681D682C445D6825
:1003F000AC4201D8DC685C605C689D68AC4204D0AB
:10040000904202D21C688442E7D8F0BD10B5014684
:10041000002200204A6808E0401CCB680C681C449D
:10042000531C1A469C4200D8CA688B68934202D07B
:100430000B688342F0D810BD2DE9F04704460E4604
:1004400017469C46DDF82080616823680CE0087838
:10045000B04200D10FE0E068D4F800908144481C1D
:100460000146814500D8E168A068884203D0181E83
:10047000A3F10103EBD100BFA068884202D10020A4
:10048000BDE8F087581C08B90020F9E70A46E06883
:10049000D4F800908144501C0246814500D8E2689F
:1004A0000CE01078B84200D10FE0E068D4F800907A
:1004B0008144501C0246814500D8E268A068904201
:1004C00003D0181EA3F10103EBD100BFA068904236
:1004D00001D10020D4E7581C08B90020D0E7E0681B
:1004E000D4F800908144501C0246814500D8E2684F
:1004F0002068C31A00250CE011F801AB28466D1CDA
:100500000CF800A0E068D4F800904844884200D875
:10051000E168914208D0454506D22068A84203D937
:10052000181EA3F10103E7D162602846A8E72DE970
:10053000F04304460E4617469C46616823680CE06B
:100540000878B04200D10FE0E068D4F80080804421
:10055000481C0146804500D8E168A068884203D065
:10056000181EA3F10103EBD100BFA068884202D19D
:100570000020BDE8F083581C08B90020F9E70A46BE
:10058000E068D4F800808044501C0246804500D8C2
:10059000E2680CE01078B04200D10FE0E068D4F8D7
:1005A00000808044501C0246804500D8E268A06864
:1005B000904203D0181EA3F10103EBD100BFA06845
:1005C000904201D10020D4E7581C08B90020D0E7A0
:1005D000E068D4F800808044501C0246804500D872
:1005E000E2682068C31A00250CE011F8019B284638
:1005F0006D1C07F80090E068D4F800804044884201
:1006000000D8E168914208D0654506D22068A8422A
:1006100003D9181EA3F10103E7D1022D0BDC00253D
:10062000481E0146D4F80C80404504D2E068D4F856
:1006300000804044411E616028469AE72DE9F0435E
:1006400004460D4616461F46616823680CE008788C
:10065000A84200D10FE0E068D4F800808044481C34
:100660000146804500D8E168A068884203D0181E82
:10067000A3F10103EBD100BFA068884202D10020A2
:10068000BDE8F083581C08B90020F9E78C46E06803
:10069000D4F8008080440CF101008446804501D8E4
:1006A000D4F80CC06168236800220EE091F8009035
:1006B0001046521C06F80090E068D4F80080804490
:1006C000481C0146804500D8E168614505D0BA4222
:1006D00003D2181EA3F10103E8D161601046CFE7F1
:1006E0002DE9F04F04460D4616461F46DDF82480DE
:1006F0004FF000096168236810E04D4503D1087888
:10070000B04200D111E091F80090E068D4F800A068
:100710008244481C0146824500D8E168A0688842AE
:1007200003D0181EA3F10103E7D100BFA0688842DF
:1007300002D10020BDE8F08F581C08B90020F9E76D
:100740008C46E068D4F800A082440CF10100844695
:10075000824501D8D4F80CC06168236800220EE0FD
:1007600091F800B01046521C07F800B0E068D4F8C9
:1007700000A08244481C0146824500D8E1686145DA
:1007800005D0424503D2181EA3F10103E8D16160F0
:100790001046CFE710B504462360B2FBF3F060606B
:1007A00021610020A060E06010BD2DE9F041044609
:1007B000884615462E460027E768002617E0781C75
:1007C00007466168884200D30027A068B84200D17C
:1007D0000FE02169E368D4F800C003FB0C10226825
:1007E000414600F04FFF20688044E760761CAE422F
:1007F000E5D300BF3046BDE8F0812DE9F041044665
:100800000E461746002514E02069A368D4F800C0FE
:1008100003FB0C012268304600F034FF20680644D8
:100820006D1CA068401CA0606168884201D3002054
:10083000A060A068E168884204D06068A84201D93D
:10084000BD42E1D32846BDE8F08110B50146002045
:1008500000228A6806E0401C531C1A464C68A342DA
:1008600000D30022CB68934202D04B688342F2D877
:1008700010BD00000CB50020019000908748006872
:1008800040F480308549086000BF8448006800F467
:10089000003000900198401C0190009818B9019810
:1008A000B0F5A04FF1D17D48006800F4003010B1E0
:1008B0000120009001E0002000900098012859D10B
:1008C0007748006840F004007549086008460068F1
:1008D00040F0020008600846006840F0010008602F
:1008E0006E482430006840F080506C492431086024
:1008F000C8146C49086000BF6A48406800F01000E6
:100900000028F9D16548083000686449083108605A
:1009100008460068086008460068086008460068E5
:1009200020F47D0008600846006840F4110008606B
:100930005A48006840F080705849086000BF574826
:10094000006800F000700028F9D0544808300068B2
:1009500020F003005149083108600846006840F063
:100960000300086000BF4D480830006800F00C002C
:100970000C28F8D10CBD10B54848006840F48070D0
:1009800046490860454808300068474908404349DF
:100990000831086041480068444908403F49086000
:1009A0000846006820F4802008603C480830006851
:1009B00020F47D003949083108600020091D0860D5
:1009C000FFF758FF4FF000603949086010BD70B55F
:1009D00000220020002100240023304D08352D681E
:1009E00005F00C0232B1042A10D0082A12D00C2AC9
:1009F00039D113E0294D2D1D2D68C5F342335D1CFF
:100A00000126AE40F5032B4E356038E02A4D294EC5
:100A1000356034E0294D274E356030E01F4D0835F4
:100A20002D6805F470101D4D08352D6805F4400142
:100A3000234D05EB90452878012505EB9151174D85
:100A400008352D6805F4803434B91B4D4543B5FB9A
:100A5000F1F5184E356005E0184D4543B5FBF1F54D
:100A6000144E35600BE00D4D2D1D2D68C5F342333E
:100A70005D1C0126AE40F5030E4E356000BF00BF81
:100A8000064D08352D68C5F303150E4E725D094DF0
:100A90002D68D540074E356070BD0000003802401B
:100AA000003C0240007000400CC0FF88FEFFFEEEDC
:100AB00008ED00E0000000200024F40000127A009D
:100AC000040000200D00002006488047064800472B
:100AD000FEE7FEE7FEE7FEE7FEE7FEE7FEE7FEE7EE
:100AE000FEE7FEE777090008F500000832490143F8
:100AF000324A1160704770B5002100230F22C4787C
:100B00001CB32E4C246804F4E064C4F5E064C4F320
:100B10000721C1F10404E3B20A4144789C40E1B2E8
:100B20008478144021430C07210E254C057861552B
:100B3000047804F01F050124AC4005786D11AD0068
:100B400005F1E025C5F8004109E0047804F01F052F
:100B50000124AC401B4D0678761145F8264070BD47
:100B6000194A0A400243154B1B1F1A60704739B1DE
:100B7000124A121D12680243104B1B1D1A6006E038
:100B80000E4A121D126882430C4B1B1D1A607047DF
:100B9000042808D14FF0E021096941F004014FF029
:100BA000E022116107E04FF0E021096921F0040122
:100BB0004FF0E022116170470000FA050CED00E0F3
:100BC00000E400E080E100E080FFFF1F10B5044674
:100BD0008248844208D10121084600F0B6FA00217B
:100BE000012000F0B2FA52E07D48844208D1012190
:100BF000022000F0AAFA0021022000F0A6FA46E046
:100C00007848844208D10121042000F09EFA002196
:100C1000042000F09AFA3AE07348844208D1012196
:100C2000082000F092FA0021082000F08EFA2EE051
:100C30006E48844208D10121102000F086FA00217C
:100C4000102000F082FA22E06948844208D1012194
:100C5000402000F07AFA0021402000F076FA16E0F9
:100C60006448844208D10121802000F06EFA0021FE
:100C7000802000F06AFA0AE05F48844207D101212F
:100C8000202000F062FA0021202000F05EFA10BD62
:100C9000F0B502460B46002100240025002000BFCD
:100CA00035E0012606FA01F41E6806EA0405A542AD
:100CB0002CD110684F000326BE40B0431E794F0070
:100CC000BE40304310601E79012E02D01E79022EE4
:100CD00012D190684F000326BE40B0435E794F00AA
:100CE000BE4030439060908801268E40B0439E798C
:100CF0008E40B6B230439080D0684F000326BE408D
:100D0000B043DE794F00BE403043D060491C10290B
:100D1000C7D3F0BD4FF6FF71016000210171417131
:100D20008171C171704708B54FF480320092009A0A
:100D30000A430092009AC261C161009AC261C2690D
:100D40000092C269009208BD02460020138A0B403F
:100D50000BB1012000E0002070470146088A70476F
:100D600002460020938A0B400BB1012000E00020D6
:100D700070470146888A70470183704741837047F6
:100D80000AB1018300E04183704781827047828A03
:100D90004A4082827047F0B5002300244D07ED0ED3
:100DA00002FA05F3CE1000F1200555F826504E0743
:100DB000F70E0F26BE40B543CF1000F1200646F8CF
:100DC0002750CE1000F1200555F8265045EA0304BF
:100DD000CE1000F1200545F82640F0BD000002408D
:100DE0000004024000080240000C024000100240D3
:100DF00000180240001C024000140240F94800683C
:100E000040F48070F7490860F64808300068F649F9
:100E10000840F44908310860F2480068F349084086
:100E2000F04908600846006820F480200860ED481A
:100E30000830006820F47D00EA490831086000208D
:100E4000091D086070470021E64A921C1170114686
:100E50000870704710B501460022002300204A1197
:100E6000012A02D1DF4C236802E0DE4C34342368CF
:100E700001F01F02012494401C400CB1012000E04D
:100E8000002010BD38B5002000900024002500BFD0
:100E90003120FFF7DFFF05460098401C00900098C6
:100EA000B0F5A04F01D0002DF2D03120FFF7D2FFD6
:100EB00008B1012400E00024204638BDC949C91DFD
:100EC0000870704701460020C64A121D106820F4C1
:100ED0006040084310607047C5490862704701468A
:100EE0000020C04A121D106820F4F85040EA01208A
:100EF00010607047BE49086070470021B94A35321A
:100F00001170114608707047BA490860704710B5F3
:100F100041EA02030343B34C0A34237010BDB449C1
:100F200008667047B24908677047B2492C310860BB
:100F3000704740EA0102AB4B0B331A707047014611
:100F40000020A84A0832106820F00300084310600F
:100F50007047A4480830006800F00C007047014654
:100F60000020A04A0832106820F0F000084310600A
:100F70007047014600209B4A0832106820F4E06068
:100F800008431060704701460020964A08321068F6
:100F900020F4605040EAC10010607047F0B50021B5
:100FA000002200230026002400258E4F08373F68CA
:100FB00007F00C0131B1042912D0082913D00C29F3
:100FC00037D113E0874F3F1D3F68C7F342356F1C91
:100FD0004FF0010C0CFA07FC4FEACC37076036E003
:100FE000854F076033E0854F076030E07D4F08375D
:100FF0003F6807F470127B4F08373F6807F44003DF
:101000007F4F07EB92473A78012707EB9353754FD1
:1010100008373F6807F480362EB9774F5743B7FB40
:10102000F3F7076004E0754F5743B7FBF3F707602A
:101030000DE06C4F3F1D3F68C7F342356F1C4FF00A
:10104000010C0CFA07FC4FEACC37076000BF00BF69
:10105000644F08373F6807F0F0010909694F7C5C6D
:101060000768E74047605F4F08373F6807F4E06173
:10107000090A644F7C5C4768E7408760594F08372E
:101080003F6807F46051C90A5E4F7C5C4768E740DF
:10109000C760F0BD002100F44032B2F5403F08D1F6
:1010A000504A116821F0C04100F0C04211434D4A3E
:1010B00011604C4A3432126822F44032494B3433C6
:1010C0001A601A46126800F440331A43454B343311
:1010D0001A607047474958310860704745495C318C
:1010E0000860704739B13F4A1C32126802433D4BD9
:1010F0001C331A6006E03B4A1C3212688243394BAB
:101100001C331A60704739B1364A203212680243E4
:10111000344B20331A6006E0324A20321268824390
:10112000304B20331A60704739B12E4A243212688E
:1011300002432C4B24331A6006E02A4A24321268F8
:101140008243284B24331A60704739B1254A103244
:1011500012680243234B10331A6006E0214A103212
:10116000126882431F4B10331A60704739B11D4A11
:101170001432126802431B4B14331A6006E0194AFA
:10118000143212688243174B14331A60704739B116
:10119000144A183212680243124B18331A6006E0E0
:1011A000104A1832126882430E4B18331A60704787
:1011B00039B10C4A2832126802430A4B28331A60AC
:1011C00006E0084A283212688243064B28331A6028
:1011D0007047C9B1034A2C3212680243014B2C33C9
:1011E0001A6016E0003802400CC0FF88FEFFFEEED9
:1011F00000004742800647420024F40000127A00B3
:101200001D000020260000201F4A126882431E4B4A
:101210001A60704739B11C4A121D126802431A4BFA
:101220001B1D1A6006E0184A121D12688243164BF5
:101230001B1D1A60704739B1134A1F3A12780243D6
:10124000114B1F3B1A7006E00F4A1F3A1278824377
:101250000D4B1F3B1A7070470B480830006840F078
:101260008070094908310860704701460020064A2D
:10127000203A12680A400AB1012000E000207047BD
:1012800001491E39087070472C38024010B50446D9
:10129000F748844209D101218803FFF767FF002145
:1012A0004FF48040FFF762FF32E0F248844209D1F8
:1012B00001214804FFF76BFF00214FF40030FFF7D6
:1012C00066FF25E0EC48844209D101218804FFF73C
:1012D0005EFF00214FF48020FFF759FF18E0E74838
:1012E000844209D10121C804FFF751FF00214FF4C6
:1012F0000020FFF74CFF0BE0E148844208D10121B8
:101300000805FFF744FF00214FF48010FFF73FFF6F
:1013100010BD2DE9FF4705460E460024A14600BF3B
:10132000A046B08900B100BF2C8A24F44054F08854
:1013300004432C82AC8941F20C608443B08831892B
:101340000843718908430443AC81AC8A24F4407497
:10135000B0890443AC826846FFF720FEC44885424A
:1013600002D1DDF80C9001E0DDF80890A88900F4C6
:10137000004040B109EBC90000EB09103168490099
:10138000B0FBF1F707E009EBC90000EB0910316889
:101390008900B0FBF1F76420B7FBF0F004012009ED
:1013A000642101FB1078A88900F4004040B132208C
:1013B00000EBC800B0FBF1F000F00700044308E0C8
:1013C000322000EB08106421B0FBF1F000F00F00B8
:1013D00004432C81BDE8FF874FF4165101600021C2
:1013E0008180C18001810C21418100218181704770
:1013F00010B502460020108A20F470600B884C88DB
:1014000023438C882343CC8823431843108210BD88
:101410000021018041808180C180704721B1828993
:1014200042F40052828104E082894DF6FF731A4033
:1014300082817047028B02F47F420283028B0A434F
:101440000283704721B1828942F40042828103E025
:101450008289C2F30E028281704721B1828A42F4EE
:101460000062828204E0828A4FF2FF731A40828215
:101470007047C1F308028280704701468888C0F334
:1014800008007047028A4FF6F0731A400282028AFF
:101490000A430282704721B1828942F002028281AE
:1014A00004E082894FF6FD731A4082817047828979
:1014B0004FF2FF731A40828182890A43828170470A
:1014C000028A4FF6DF731A400282028A0A430282BE
:1014D000704721B1028A42F48042028204E0028A0B
:1014E0004BF6FF731A4002827047818941F0010177
:1014F0008181704721B1828A42F00802828204E031
:10150000828A4FF6F7731A4082827047028BD2B2FA
:101510000283028B42EA01220283704721B1828A50
:1015200042F02002828204E0828A4FF6DF731A4082
:101530008282704721B1828A42F01002828204E0E6
:10154000828A4FF6EF731A4082827047828A4FF682
:10155000FB731A408282828A0A438282704721B1D9
:10156000828A42F00202828204E0828A4FF6FD7390
:101570001A40828270471AB1838A0B43838202E049
:10158000838A8B4383827047F0B50346002400268C
:101590000025002040F66A17B94200D100BF184666
:1015A000C1F3421401F01F06012707FA06F5012CCA
:1015B00001D10C3004E0022C01D1103000E01430D5
:1015C0001AB107682F43076002E00768AF4307605E
:1015D000F0BD02460020B1F5007F00D100BF1388A6
:1015E0000B400BB1012000E00020704701F40072B5
:1015F000B2F5007F00D100BFCA430280704770B5CA
:101600000246002400230025002040F66A16B1425D
:1016100000D100BFC1F3421501F01F03012606FAF5
:1016200003F3012D02D19689334006E0022D02D149
:10163000168A334001E0968A33400C12012606FADE
:1016400004F41688344013B10CB1012000E00020EE
:1016500070BD10B50022002340F66A14A14200D1EB
:1016600000BF0A1201249440A3B2DC43048010BDE1
:10167000003801400044004000480040004C004059
:101680000050004040EA01039B0703D009E008C96D
:10169000121F08C0042AFAD203E011F8013B00F837
:1016A000013B521EF9D27047064C074D06E0E06838
:1016B00040F0010394E8070098471034AC42F6D399
:1016C000FEF71CFDEC1600080C17000802E008C825
:1016D000121F08C1002AFAD170477047002001E0AC
:1016E00001C1121F002AFBD1704700000C1700082F
:1016F0000000002038000000CC1600084417000845
:1017000038000020200C0000DC1600080048E8012A
:10171000030406080C101820300000000000000030
:10172000000102030406070809030406080C101848
:101730002030000000000102030401020304060738
:041740000809000094
:04000005080000F5FA
:00000001FF
