:020000040800F2
:1000000068210020710D0008BB010008BD01000837
:10001000C1010008C5010008C90100080000000076
:1000200000000000000000000000000009010008BE
:10003000CF010008000000004D010008D3010008B6
:100040008B0D00088B0D00088B0D00088B0D000830
:100050008B0D00088B0D00088B0D00088B0D000820
:100060008B0D00088B0D00088B0D00088B0D000810
:100070008B0D00088B0D00088B0D00088B0D000800
:100080008B0D00088B0D00088B0D00088B0D0008F0
:100090008B0D00088B0D00088B0D00088B0D0008E0
:1000A0008B0D00088B0D00088B0D00088B0D0008D0
:1000B0008B0D00088B0D00088B0D00088B0D0008C0
:1000C0008B0D00088B0D00088B0D00088B0D0008B0
:1000D0008B0D00081B0500088B0D00088B0D000818
:1000E0008B0D00088B0D00088B0D00088B0D000890
:1000F0008B0D0008DFF80CD003F08AFC00480047A5
:10010000AB01000868210020204B19680868B0E89E
:10011000F00F80F30988BFF36F8F4FF0000080F37A
:1001200011884EF00D0E7047000000000648006870
:10013000006880F3088862B661B6BFF34F8FBFF3E3
:100140006F8F00DF00BF00BF08ED00E0EFF3098014
:10015000BFF36F8F0D4B1A6820E9F00F106008B5E0
:100160004FF0BF0080F3118802F0D5FD4FF0000082
:1001700080F31188BDE8084019680868B0E8F00FFE
:1001800080F30988BFF36F8F704700BF70000020B5
:10019000EFF311804FF0BF0181F31188704780F3B6
:1001A00011887047EFF30580704700F016F800F0F3
:1001B000D1FB02F0F6FE00BFFEE7704700BFFEE78E
:1001C00000BFFEE700BFFEE700BFFEE770477047D5
:1001D000704710B501F0D3FF10BD10B54FF4C060EB
:1001E00000F0D8FD4FF4FA7000F023FC00F017FD8A
:1001F0004FF4FA7000F01DFC0A2000F01AFC00F029
:1002000011F80A2000F015FC00F0B9F80A2000F0FF
:1002100010FC00F0D9F80A2000F00BFC0A2000F0D6
:1002200008FC10BD00B589B0012001F051FA00BFF3
:10023000212001F0FDF90028FAD00121084601F043
:100240003FFB0121480201F04CFB042007900320F2
:100250008DF8200000208DF8230001208DF821006A
:1002600007A93B4801F002F901A800F036FE002082
:1002700001908DF8080001208DF8090000200390FE
:10028000059001208DF8180001A9324800F000FE09
:100290000623012202212F4800F083FE10212D4861
:1002A00000F055FE01212B4800F032FE00BF402136
:1002B000284801F055F80028F9D009B000BD70B504
:1002C000002600BF00202449086000BF13E0214839
:1002D00000F013FF00BF02211E4801F041F8002882
:1002E000F9D01C4800F045FF1B49096808441A4929
:1002F0000860701C86B20A2EE9DB1748006803F01C
:100300009EF904460D460022144B2046294603F070
:1003100027F904460D460022114B2046294603F0DA
:100320001FF904460D464FF066320E4B2046294613
:1003300003F0A4F804460D464FF033320A4B204632
:10034000294603F09BF804460D462046294670BD19
:100350000000024000240140000000200000244072
:1003600000FEAF4066660A403333F33F10B50446E3
:1003700022464FF48051134801F0F0F810BD1CB52F
:100380000121022001F09CFA4FF4805000900120DE
:100390008DF8040000208DF8060002208DF805007D
:1003A00001208DF807006946064801F05FF800203B
:1003B000FFF7DCFF1CBD10B54FF48051014801F080
:1003C000D4F810BD0004024000B587B001210846F2
:1003D00001F076FA0121880301F083FA02208DF8FA
:1003E000080000208DF80A0001208DF80B00032082
:1003F0008DF809004FF40070019001A9504801F0F8
:1004000035F84FF48060019001A94D4801F02EF8B5
:10041000072209214A4801F0ACF807220A2148487E
:1004200001F0A7F84FF4E13003900020ADF8100080
:10043000ADF81200ADF81400ADF818000C20ADF8BE
:10044000160003A93F4801F052FB01213D4801F08D
:10045000D3FB012240F225513A4801F083FC2520CC
:100460008DF8000003208DF8010002208DF80200B5
:1004700001208DF80300684600F091FC0022012164
:100480004FF4FA7001F0C3FE2F49086000220121E9
:100490004FF4FA7001F0BBFE2C49086007B000BDB4
:1004A0001CB50020009040F22771264801F095FC11
:1004B000012819D101F049FE6A4601A923480068C4
:1004C00002F093F8044601F04DFE012C06D19DF98F
:1004D000040081B21B4801F0BAFB05E0002240F2A3
:1004E0002771184801F03EFC40F22551154801F0F3
:1004F00074FC01280FD1134801F0ADFB40B201900C
:1005000001F023FE00236A4601A90F48006801F0AC
:1005100099FF01F027FE00981CBD10B5FFF7C0FF42
:1005200010BD10B5012240F22771064801F01AFCF7
:1005300010BD054800687047044800687047000017
:1005400000000240003801400400002008000020A4
:100550002DE9FC410024642003210346844ACDE9AF
:10056000001084A184A000F08FF910B90020BDE82C
:10057000FC814FF4FA60032183107D4ACDE900101D
:100580007CA17FA000F080F901280DD17FA17848DF
:1005900002F052FF04467DA1002002F04DFF044608
:1005A000204600F017FA01E00020E0E74FF47A70EF
:1005B000052164236E4ACDE9001075A175A000F0F5
:1005C00063F908B90020D2E74FF47A70032164235D
:1005D000674ACDE9001072A173A000F055F908B97F
:1005E0000020C4E74FF47A7001216423604ACDE90A
:1005F000001060A16FA000F047F908B90020B6E72D
:100600004FF47A7001216423594ACDE9001059A1B1
:100610006CA000F039F908B90020A8E74FF47A700F
:1006200001216423524ACDE9001052A16CA000F0D0
:100630002BF908B900209AE74FF47A70012164235E
:100640004B4ACDE900104BA168A000F01DF908B994
:1006500000208CE74FF47A7001216423444ACDE9ED
:10066000001044A167A000F00FF908B900207EE750
:100670004FF47A70012164233D4ACDE900103DA179
:1006800064A000F001F908B9002070E740F6B83026
:1006900003216423364ACDE9001062A163A000F073
:1006A000F3F808B9002062E74FF4FA6003216423ED
:1006B0002F4ACDE9001068A168A000F0E5F808B95C
:1006C000002054E700F09AF9804602F0C5FF054685
:1006D0000E4600F08EF907463B46634A4FF47A71A6
:1006E0006248CDE9005603F0D7F94FF47A70012142
:1006F00003460022CDE9001011465C4800F0C4F822
:100700001A205A490870002048704FF48061184838
:1007100002F06DFE40F6B83001214FF47A73144AAE
:10072000CDE900100021514800F0AEF850A110486A
:1007300002F068FE08B1012019E750A10C4802F050
:1007400061FE08B1002012E7002010E770B5002418
:10075000002507E0FFF7FCFE0546641C4FF47A70A5
:1007600002F045FA032C01D2002DF3D070BD000039
:10077000AC0400204F4B0000415445300D000000F8
:1007800041542B434349440D000000000A0000007F
:10079000302C310041542B435245473F0D0000009F
:1007A00053485554204F4B0041542B434950534814
:1007B00055540D0041542B4347434C4153533D2264
:1007C00042220D0041542B434744434F4E543D3188
:1007D0002C224950222C22434D4E4554220D00001C
:1007E00041542B43474154543D310D0041542B4358
:1007F0004950435347503D312C22434D4E455422DE
:100800000D00000041542B4349504D55583D300DCB
:100810000000000041542B434950484541443D30BD
:100820000D000000434F4E4E4543540041542B43AE
:10083000495053544152543D22544350222C226972
:100840006F742E6F7361706C696E672E636F6D22AB
:100850002C38300D000000003E00000041542B43B6
:10086000495053454E440D0088430008AC00002019
:10087000310D0A310D0A300D0A000000310D0A3029
:100880000D0A300D0A0000002DE9FE4F05460E4608
:1008900014461F46DDF830A04FF00008C14645E081
:1008A0007CB100BFFFF745FE8346002001210346CF
:1008B0003A46CDE900102146584600F0D6F8012806
:1008C000F0D0284602F0B0FD1FFA80FBFFF734FE9F
:1008D0001A490290642001235A46CDE900012946B5
:1008E000029800F0EDF8DCB1FFF723FE834601210A
:1008F0000D9800233A46CDE900102146584600F0F5
:10090000B4F856B13146204602F07CFD10B14FF0EC
:10091000010807E04FF0000804E04FF0010801E093
:100920004FF0010809F1010000F0FF09B8F1000FD4
:1009300001D1D145B4DB4046BDE8FE8F2305000858
:1009400010B5044600F02FF8FFF700FF002001F07B
:10095000C1FF10BD1FB500200223CDE90030029079
:1009600003468022039003480168034801F02EFFEC
:100970001FBD00000C0000204109000812E0FFF735
:100980001AFDFFF79CFC054602F079FE044600F0D4
:1009900032F80D480068401C0B4908604FF47A702B
:1009A00002F025F9EBE71FB500200223CDE9003066
:1009B000029003468022039004480168044801F035
:1009C00005FFC0B204B010BD1400002010000020CC
:1009D0007D09000810B5044634B1234609A215214B
:1009E0000A4803F059F803E01521084802F0FFFC1B
:1009F00010BD064870470649086070470448006803
:100A000070470000252E323073000000AC08002033
:100A1000180000200021002200BF07E0002201E0B2
:100A2000531C9AB2062AFBDB4B1C99B28142F5DBC0
:100A3000704730B50446002500BF05E04FF47A70DA
:100A4000FFF7E8FF681C85B2A542F7DB30BD30B583
:100A50000446002500BF05E04FF47A70FFF7E9FF78
:100A6000681C85B2A542F7DB30BD2DE9F84F06467C
:100A70000F4690461D46DDE90AAB0024B94600202A
:100A800000900EB9BDE8F88F00240EE000235A460E
:100A90004946304601F031FD012801D1D14402E040
:100AA0004FF0000903E0601C84B24445EEDB00BF58
:100AB000002C01DD0120009005B12C800098E1E7B9
:100AC0002DE9F84F04460D4616461F46DDE90AB8E3
:100AD0004FF00009AA46002000900CB9BDE8F88F3D
:100AE0004FF0000911E000235A465146204601F01C
:100AF0003AFC012802D1BA44009002E000200090A4
:100B000005E009F101001FFA80F9B145EBDB00BFF8
:100B1000B8F1000F00D0C0470098DFE70CB5002007
:100B2000019000908748006840F480308549086053
:100B300000BF8448006800F4003000900198401C19
:100B40000190009818B90198B0F5A04FF1D17D48F7
:100B5000006800F4003010B10120009001E0002096
:100B600000900098012859D17748006840F00400AF
:100B7000754908600846006840F0020008600846B1
:100B8000006840F0010008606E482430006840F0C2
:100B900080506C4924310860C8146C49086000BF5B
:100BA0006A48406800F010000028F9D16548083014
:100BB0000068644908310860084600680860084613
:100BC000006808600846006820F47D000860084658
:100BD000006840F4110008605A48006840F08070D6
:100BE0005849086000BF5748006800F000700028AE
:100BF000F9D054480830006820F00300514908310A
:100C000008600846006840F00300086000BF4D48D7
:100C10000830006800F00C000C28F8D10CBD10B5AD
:100C20004848006840F480704649086045480830EC
:100C30000068474908404349083108604148006856
:100C4000444908403F4908600846006820F4802075
:100C500008603C480830006820F47D0039490831BC
:100C600008600020091D0860FFF758FF4FF0006082
:100C70003949086010BD70B5002200200021002411
:100C80000023304D08352D6805F00C0232B1042ADE
:100C900010D0082A12D00C2A39D113E0294D2D1D6D
:100CA0002D68C5F342335D1C0126AE40F5032B4E83
:100CB000356038E02A4D294E356034E0294D274E05
:100CC000356030E01F4D08352D6805F470101D4D5E
:100CD00008352D6805F44001234D05EB9045287833
:100CE000012505EB9151174D08352D6805F4803429
:100CF00034B91B4D4543B5FBF1F5184E356005E0A1
:100D0000184D4543B5FBF1F5144E35600BE00D4D24
:100D10002D1D2D68C5F342335D1C0126AE40F50341
:100D20000E4E356000BF00BF064D08352D68C5F377
:100D300003150E4E725D094D2D68D540074E356086
:100D400070BD000000380240003C024000700040CE
:100D50000CC0FF88FEFFFEEE08ED00E01C00002046
:100D60000024F40000127A00200000202900002056
:100D70000648804706480047FEE7FEE7FEE7FEE735
:100D8000FEE7FEE7FEE7FEE7FEE7FEE71F0C0008D2
:100D9000F500000832490143324A1160704770B5CE
:100DA000002100230F22C4781CB32E4C246804F4C5
:100DB000E064C4F5E064C4F30721C1F10404E3B2C4
:100DC0000A4144789C40E1B28478144021430C07E6
:100DD000210E254C05786155047804F01F05012487
:100DE000AC4005786D11AD0005F1E025C5F8004176
:100DF00009E0047804F01F050124AC401B4D06787F
:100E0000761145F8264070BD194A0A400243154B39
:100E10001B1F1A60704739B1124A121D1268024333
:100E2000104B1B1D1A6006E00E4A121D1268824309
:100E30000C4B1B1D1A607047042808D14FF0E021AD
:100E4000096941F004014FF0E022116107E04FF021
:100E5000E021096921F004014FF0E022116170479F
:100E60000000FA050CED00E000E400E080E100E0A5
:100E700080FFFF1F10B50446FE48844207D10121C0
:100E8000401500F061FD0021601500F05DFD10BD12
:100E900030B50246002000235068F74C20400D7901
:100EA0000C6844EA0524204350609068F34C2040CD
:100EB000D1E903542C438D682C434D7944EA450411
:100EC00020439060106B20F0F8700C7D641EE4B23B
:100ED000234340EA0350106330BD002101600171DB
:100EE000417181604FF04071C160002101610121B9
:100EF0000175704701460020E14A106820F4403037
:100F00000A681043DE4A1060704700210160704794
:100F100021B1826842F00102826003E0826822F01F
:100F200001028260704721B1826842F0040282604F
:100F300003E0826822F00402826070471AB14368BD
:100F40000B43436002E043688B43436070470A46AB
:100F50000021816821F0F0011143816070470A4649
:100F600000214168C74B19401143416070478162BD
:100F7000C26270470A460021416821F01F011143F7
:100F80004160704730B1BE49096841F40001BC4A74
:100F9000116005E0BA49096821F40001B84A1160FE
:100FA0007047F0B504460D46002000211D2D11DDCF
:100FB000E06DA5F11E0606EB4607072606FA07F1C7
:100FC0008843A5F11E0606EB460603FA06F1084320
:100FD000E06534E0132D11DDE068A5F1140606EBA1
:100FE0004607072606FA07F18843A5F1140606EB23
:100FF000460603FA06F10843E06020E0092D11DD02
:101000002069A5F10A0606EB4607072606FA07F14E
:101010008843A5F10A0606EB460603FA06F10843E3
:1010200020610CE0606905EB4507072606FA07F129
:10103000884305EB450603FA06F108436061072A79
:101040000FDA206C561E06EB86071F2606FA07F1FC
:101050008843561E06EB860605FA06F1084320640F
:101060004AE00D2A0FDAE06BD61F06EB86071F2633
:1010700006FA07F18843D61F06EB860605FA06F145
:101080000843E06338E0132A11DAA06BA2F10D06E1
:1010900006EB86071F2606FA07F18843A2F10D0624
:1010A00006EB860605FA06F10843A06324E0192A38
:1010B00011DA606BA2F1130606EB86071F2606FA0B
:1010C00007F18843A2F1130606EB860605FA06F13E
:1010D0000843606310E0206BA2F1190606EB860757
:1010E0001F2606FA07F18843A2F1190606EB8606C9
:1010F00005FA06F108432063F0BD816841F08041A4
:1011000081607047014600208A6802F080420AB17F
:10111000012000E00020704721B1826842F4806223
:10112000826003E0826822F480628260704721B1AD
:10113000826842F00202826003E0826822F00202CA
:101140008260704710B50A4600210023416821F4EF
:101150006041531E41EA4331416010BD21B14268F4
:1011600042F40062426003E0426822F4006242609E
:1011700070470146886D80B2704721B1826842F4A1
:101180008072826003E0826822F48072826070471D
:1011900021B1826842F40072826003E0826822F426
:1011A000007282607047F0B50446154600200022A8
:1011B00000261D2911DDE06DA1F11E0707EB470C8C
:1011C000072707FA0CF29043A1F11E0707EB470728
:1011D00003FA07F21043E06534E0132911DDE068FB
:1011E000A1F1140707EB470C072707FA0CF290430D
:1011F000A1F1140707EB470703FA07F21043E06079
:1012000020E0092911DD2069A1F10A0707EB470C4D
:10121000072707FA0CF29043A1F10A0707EB4707EB
:1012200003FA07F2104320610CE0606901EB410C06
:10123000072707FA0CF2904301EB410703FA07F284
:1012400010436061606CC0F30156EF1C06F1010CA5
:10125000A7EB0C0707EB870C1F2707FA0CF290434C
:10126000EF1C06F1010CA7EB0C0707EB870701FA4F
:1012700007F209E000240140FFFEFFFCFDF7FFC07C
:1012800004270140FFFD3FFF10436064F0BD10B52F
:101290000A4600210023416C21F44011531E41EA0B
:1012A0000351416410BD08B5002300930090009BDA
:1012B0000B440093009B1A6008BD0A460021816818
:1012C00021F470211143816070470A460021816832
:1012D00021F44011114381607047816841F480011D
:1012E00081607047014600208A6802F480020AB1DA
:1012F000012000E00020704721B1426842F4806282
:10130000426003E0426822F480624260704721B18B
:10131000426842F48052426003E0426822F4805204
:101320004260704708B5024600200090009201F12B
:101330003000009B184400900098006880B208BDFF
:1013400010B50B460021D9B2012404FA01F11AB1FB
:1013500044680C43446002E044688C43446010BD20
:101360000246002013680B400BB1012000E0002072
:101370007047CA430260704770B5024600200023E0
:1013800000240B0A556801268E4005EA06041568FC
:101390001D4015B10CB1012000E0002070BD0022FD
:1013A0000A12D3430360704710B504468248844252
:1013B00008D10121084600F0B6FA0021012000F012
:1013C000B2FA52E07D48844208D10121022000F0A7
:1013D000AAFA0021022000F0A6FA46E078488442EA
:1013E00008D10121042000F09EFA0021042000F021
:1013F0009AFA3AE07348844208D10121082000F0AB
:1014000092FA0021082000F08EFA2EE06E48844205
:1014100008D10121102000F086FA0021102000F0F0
:1014200082FA22E06948844208D10121402000F07C
:101430007AFA0021402000F076FA16E064488442EF
:1014400008D10121802000F06EFA0021802000F0F8
:101450006AFA0AE05F48844207D10121202000F0A7
:1014600062FA0021202000F05EFA10BDF0B50246BD
:101470000B46002100240025002000BF35E0012696
:1014800006FA01F41E6806EA0405A5422CD110688C
:101490004F000326BE40B0431E794F00BE4030438C
:1014A00010601E79012E02D01E79022E12D1906892
:1014B0004F000326BE40B0435E794F00BE4030432C
:1014C0009060908801268E40B0439E798E40B6B2DF
:1014D00030439080D0684F000326BE40B043DE7991
:1014E0004F00BE403043D060491C1029C7D3F0BD27
:1014F0004FF6FF7101600021017141718171C1716D
:10150000704708B54FF480320092009A0A43009267
:10151000009AC261C161009AC261C2690092C26947
:10152000009208BD02460020138A0B400BB1012037
:1015300000E0002070470146088A704702460020FC
:10154000938A0B400BB1012000E000207047014658
:10155000888A704701837047418370470AB10183CD
:1015600000E04183704781827047828A4A408282CC
:101570007047F0B5002300244D07ED0E02FA05F385
:10158000CE1000F1200555F826504E07F70E0F2615
:10159000BE40B543CF1000F1200646F82750CE10CC
:1015A00000F1200555F8265045EA0304CE1000F15D
:1015B000200545F82640F0BD00000240000402402E
:1015C00000080240000C02400010024000180240D7
:1015D000001C024000140240F948006840F480708A
:1015E000F7490860F64808300068F6490840F449B1
:1015F00008310860F2480068F3490840F049086083
:101600000846006820F480200860ED480830006833
:1016100020F47D00EA49083108600020091D0860B7
:1016200070470021E64A921C1170114608707047FD
:1016300010B501460022002300204A11012A02D1E0
:10164000DF4C236802E0DE4C3434236801F01F02D3
:10165000012494401C400CB1012000E0002010BD8A
:1016600038B5002000900024002500BF3120FFF78E
:10167000DFFF05460098401C00900098B0F5A04F91
:1016800001D0002DF2D03120FFF7D2FF08B10124A4
:1016900000E00024204638BDC949C91D08707047C4
:1016A00001460020C64A121D106820F4604008431D
:1016B00010607047C5490862704701460020C04A63
:1016C000121D106820F4F85040EA012010607047A5
:1016D000BE49086070470021B94A35321170114681
:1016E00008707047BA490860704710B541EA0203B4
:1016F0000343B34C0A34237010BDB44908667047E5
:10170000B24908677047B2492C310860704740EA17
:101710000102AB4B0B331A70704701460020A84AF8
:101720000832106820F00300084310607047A44896
:101730000830006800F00C00704701460020A04A05
:101740000832106820F0F00008431060704701462E
:1017500000209B4A0832106820F4E06008431060C3
:10176000704701460020964A0832106820F4605005
:1017700040EAC10010607047F0B50021002200234C
:101780000026002400258E4F08373F6807F00C0123
:1017900031B1042912D0082913D00C2937D113E014
:1017A000874F3F1D3F68C7F342356F1C4FF0010C58
:1017B0000CFA07FC4FEACC37076036E0854F07602C
:1017C00033E0854F076030E07D4F08373F6807F40E
:1017D00070127B4F08373F6807F440037F4F07EBD9
:1017E00092473A78012707EB9353754F08373F68C4
:1017F00007F480362EB9774F5743B7FBF3F70760EE
:1018000004E0754F5743B7FBF3F707600DE06C4FEB
:101810003F1D3F68C7F342356F1C4FF0010C0CFAB7
:1018200007FC4FEACC37076000BF00BF644F0837A2
:101830003F6807F0F0010909694F7C5C0768E740E1
:1018400047605F4F08373F6807F4E061090A644F5B
:101850007C5C4768E7408760594F08373F6807F46A
:101860006051C90A5E4F7C5C4768E740C760F0BDC5
:10187000002100F44032B2F5403F08D1504A1168CF
:1018800021F0C04100F0C04211434D4A11604C4A62
:101890003432126822F44032494B34331A601A460B
:1018A000126800F440331A43454B34331A607047D2
:1018B000474958310860704745495C3108607047B6
:1018C00039B13F4A1C32126802433D4B1C331A6047
:1018D00006E03B4A1C3212688243394B1C331A60C3
:1018E000704739B1364A203212680243344B2033F4
:1018F0001A6006E0324A203212688243304B2033AD
:101900001A60704739B12E4A2432126802432C4BB8
:1019100024331A6006E02A4A243212688243284B94
:1019200024331A60704739B1254A103212680243D5
:10193000234B10331A6006E0214A103212688243AA
:101940001F4B10331A60704739B11D4A14321268A8
:1019500002431B4B14331A6006E0194A1432126812
:101960008243174B14331A60704739B1144A183246
:1019700012680243124B18331A6006E0104A1832FC
:10198000126882430E4B18331A60704739B10C4A03
:101990002832126802430A4B28331A6006E0084ACC
:1019A000283212688243064B28331A607047C9B147
:1019B000034A2C3212680243014B2C331A6016E0A2
:1019C000003802400CC0FF88FEFFFEEE00004742D8
:1019D000800647420024F40000127A0039000020FB
:1019E000420000201F4A126882431E4B1A60704753
:1019F00039B11C4A121D126802431A4B1B1D1A6092
:101A000006E0184A121D12688243164B1B1D1A600D
:101A1000704739B1134A1F3A12780243114B1F3BEA
:101A20001A7006E00F4A1F3A127882430D4B1F3B93
:101A30001A7070470B480830006840F08070094900
:101A400008310860704701460020064A203A1268B3
:101A50000A400AB1012000E00020704701491E3908
:101A6000087070472C38024010B50446F74884428D
:101A700009D101218803FFF767FF00214FF480405F
:101A8000FFF762FF32E0F248844209D101214804A5
:101A9000FFF76BFF00214FF40030FFF766FF25E0F2
:101AA000EC48844209D101218804FFF75EFF002140
:101AB0004FF48020FFF759FF18E0E748844209D12E
:101AC0000121C804FFF751FF00214FF40020FFF768
:101AD0004CFF0BE0E148844208D101210805FFF7E3
:101AE00044FF00214FF48010FFF73FFF10BD2DE9A8
:101AF000FF4705460E460024A14600BFA046B08918
:101B000000B100BF2C8A24F44054F08804432C8296
:101B1000AC8941F20C608443B088318908437189F3
:101B200008430443AC81AC8A24F44074B089044374
:101B3000AC826846FFF720FEC448854202D1DDF83A
:101B40000C9001E0DDF80890A88900F4004040B155
:101B500009EBC90000EB091031684900B0FBF1F74F
:101B600007E009EBC90000EB091031688900B0FB00
:101B7000F1F76420B7FBF0F004012009642101FBB8
:101B80001078A88900F4004040B1322000EBC80072
:101B9000B0FBF1F000F00700044308E0322000EB56
:101BA00008106421B0FBF1F000F00F0004432C8119
:101BB000BDE8FF874FF41651016000218180C1808C
:101BC00001810C21418100218181704710B50246BD
:101BD0000020108A20F470600B884C8823438C8886
:101BE0002343CC8823431843108210BD0021018079
:101BF00041808180C180704721B1828942F40052C6
:101C0000828104E082894DF6FF731A408281704719
:101C1000028B02F47F420283028B0A4302837047E5
:101C200021B1828942F40042828103E08289C2F3B9
:101C30000E028281704721B1828A42F40062828260
:101C400004E0828A4FF2FF731A4082827047C1F328
:101C500008028280704701468888C0F308007047F8
:101C6000028A4FF6F0731A400282028A0A43028205
:101C7000704721B1828942F00202828104E08289A8
:101C80004FF6FD731A408281704782894FF2FF73CD
:101C90001A40828182890A4382817047028A4FF604
:101CA000DF731A400282028A0A430282704721B11E
:101CB000028A42F48042028204E0028A4BF6FF73F9
:101CC0001A4002827047818941F001018181704789
:101CD00021B1828A42F00802828204E0828A4FF6B1
:101CE000F7731A4082827047028BD2B20283028B52
:101CF00042EA01220283704721B1828A42F0200227
:101D0000828204E0828A4FF6DF731A408282704733
:101D100021B1828A42F01002828204E0828A4FF668
:101D2000EF731A4082827047828A4FF6FB731A4023
:101D30008282828A0A438282704721B1828A42F07B
:101D40000202828204E0828A4FF6FD731A40828288
:101D500070471AB1838A0B43838202E0838A8B43E4
:101D600083827047F0B5034600240026002500203A
:101D700040F66A17B94200D100BF1846C1F34214B9
:101D800001F01F06012707FA06F5012C01D10C30DE
:101D900004E0022C01D1103000E014301AB10768C1
:101DA0002F43076002E00768AF430760F0BD0246BB
:101DB0000020B1F5007F00D100BF13880B400BB1AC
:101DC000012000E00020704701F40072B2F5007FAE
:101DD00000D100BFCA430280704770B5024600249C
:101DE00000230025002040F66A16B14200D100BF52
:101DF000C1F3421501F01F03012606FA03F3012D7A
:101E000002D19689334006E0022D02D1168A334072
:101E100001E0968A33400C12012606FA04F4168873
:101E2000344013B10CB1012000E0002070BD10B5AA
:101E30000022002340F66A14A14200D100BF0A121A
:101E400001249440A3B2DC43048010BD003801405B
:101E50000044004000480040004C0040005000405A
:101E600010B50146714800E0006803688B42FBD35F
:101E70000246436813448B4204D143684C682344B0
:101E8000436001460A464B6813440468A34211D1DB
:101E9000674C03682468A34208D04B6804686468F0
:101EA00023444B6003681B680B6005E0604B1B68B4
:101EB0000B6001E003680B60884200D0016010BD38
:101EC00030B54FF4A0535B4800F007042CB1C01D9F
:101ED00020F00700574C041B1B1B0246534C22608A
:101EE0000024524D6C60D018083820F00700504C88
:101EF000206000244E4D2D686C604D4D2D682C6087
:101F00001146441A4C604A4C24680C604A4D4C6897
:101F10002C604A4D4C682C604FF00044484D2C60BA
:101F200030BD2DE9F04105464FF0000800F01AFEE3
:101F30003F48006808B9FFF7C3FF414800682840E0
:101F4000002847D145B1083505F0070020B105F05C
:101F50000700C0F108000544002D3BD03748006859
:101F6000854237D8314E3046046801E02646246861
:101F70006068A84202D220680028F7D12C48006887
:101F8000844227D0306800F108082068306060681B
:101F9000401B102807D967196068401B786065608E
:101FA0003846FFF75DFF254960680968081A23492C
:101FB00008600846006820490968884203D21F4823
:101FC00000681D4908601E49606809680843606030
:101FD0000020206000F026FD4046BDE8F08170B58D
:101FE00006463546D6B1083D2C4615496068096855
:101FF000084098B1206888B9114960680968884329
:10200000606000F0AFFD0D496068096808440B4945
:1020100008602046FFF724FF00F004FD70BD07486C
:1020200000687047044800687047704754000020FB
:102030005C000020C1080020640000206000002037
:102040006800002000F1080141604FF0FF3181601D
:1020500000F10801C16001610021016070470021A9
:102060000161704742684A6093688B609368596069
:102070009160086103685B1C0360704710B50246FD
:102080000B685C1C0CB9106907E002F1080000E065
:102090004068446824689C42FAD944684C604C68A3
:1020A000A160886041600A611468641C146010BDFE
:1020B00001460A69D1E901309860D1E9010358600D
:1020C0005068884201D1886850600020086110681B
:1020D000401E106010687047FEF75AF800BFFEE718
:1020E000001F4FF080730360001F0160001F2B4B27
:1020F0000360143802602038704747F6FF404FF005
:10210000E021486107200861704710B52448006845
:1021100040F47F00224908600846006840F07F4094
:102120000860FFF7EAFF00201E490860FDF7FEFF88
:10213000002010BD70474FF0805019491C390860CD
:10214000BFF34F8FBFF36F8F704710B5FEF720F8C6
:1021500014480068401C13490860BFF34F8FBFF359
:102160006F8F10BD10B50F480068401E0D49086004
:102170000846006810B90020FEF711F810BD10B530
:10218000FEF706F800F0EBFB20B14FF08050044959
:102190001C3908600020FEF702F810BDD9200008A5
:1021A00020ED00E06C00002070B505460E462C4680
:1021B000FFF7CBFFD4E90F12206801FB020060603B
:1021C0000020A0632068A060E06B401E226C2168A4
:1021D00000FB0210E0604FF0FF306064A06456B96D
:1021E000206908B9012000E0002060B904F1100066
:1021F00001F011F807E004F11000FFF723FF04F1EC
:102200002400FFF71FFFFFF7ADFF012070BD2DE990
:10221000F04705460E4617464FF00009DDB1542041
:10222000FFF77FFE0446B4B105FB06F000F101089C
:102230004046FFF776FE2060206848B1E5632664DB
:1022400001212046FFF7B0FF84F85070A14602E05C
:102250002046FFF7C4FE4846BDE8F08710B50446A7
:10226000FFF773FF11E0606A08B9012000E0002069
:1022700038B904F1240000F0CEFF18B101F05FF886
:1022800000E005E0A06C401EA064A06C0028EADC21
:1022900000BF4FF0FF30A064FFF764FFFFF755FF6A
:1022A00011E0206908B9012000E0002050B904F1D4
:1022B000100000F0B0FF08B101F041F8606C401E62
:1022C000606400E002E0606C0028EADC00BF4FF0D0
:1022D000FF306064FFF746FF10BD70B50546FFF79D
:1022E00034FFA86BE96B884201D1012400E000248F
:1022F000FFF738FF204670BD2DE9F04104460E4639
:1023000015460027206C40B37DB93146226CA06889
:1023100001F054F8216CA0680844A060D4E90110D1
:1023200088421AD32068A06017E03146226CE0682A
:1023300001F044F8216CE068401AE0602168E06830
:10234000884203D2216C6068401AE060022D04D1FB
:10235000A06B10B1A06B401EA063A06B401CA063DB
:102360003846BDE8F0812DE9FF4383B006460F46AD
:102370001D464FF00008344600BFFFF7E6FEA06B95
:10238000E16B884201D3022D17D12A4639462046F7
:10239000FFF7B2FF8146606A08B9012000E0002023
:1023A00020B904F1240000F036FF00E000BFFFF781
:1023B000D9FE012007B0BDE8F083059818B9FFF7F2
:1023C000D1FE0020F6E7B8F1000F04D101A800F01B
:1023D00085FF4FF00108FFF7C5FE00F0C3FBFFF7D4
:1023E000B4FE606C401C08B900206064A06C401C06
:1023F00008B90020A064FFF7B5FE05A901A800F008
:1024000074FFC0B92046FFF768FF70B104F11000F7
:10241000059900F0A4FE2046FFF720FF00F002FB24
:102420000028AAD1FFF787FEA7E72046FFF716FF8F
:1024300000F0F8FAA1E72046FFF710FF00F0F2FAEB
:102440000020B7E72DE9F0470646894615461F46A6
:102450003446FDF79DFE8246A06BE16B884201D3B6
:10246000022F20D13A4649462046FFF745FF10B1DA
:102470000DB101202860A06C401C70B9606A08B9D9
:10248000012000E0002058B904F1240000F0C3FE50
:1024900030B12DB10120286002E0A06C401CA06486
:1024A0004FF0010801E04FF000085046FDF777FEBD
:1024B0004046BDE8F08770B50546FFF746FEA86BBD
:1024C00008B9012400E00024FFF74CFE204670BD4F
:1024D00070B504460D46206C70B1216CE06808446C
:1024E000E0606168E068884201D32068E0602846C7
:1024F000226CE16800F062FF70BD2DE9FF4383B0FC
:10250000054688461E464FF000092C4600BFFFF7DF
:102510001CFEA06B20B3E76841462046FFF7D8FFBA
:102520006EB9A06B401EA063206908B9012000E0CD
:10253000002078B904F1100000F06DFE0AE0E760B9
:10254000606A08B9012000E0002018B904F12400F5
:1025500000F061FEFFF706FE012007B0BDE8F08342
:10256000059818B9FFF7FEFD0020F6E7B9F1000F56
:1025700004D101A800F0B2FE4FF00109FFF7F2FD0F
:1025800000F0F0FAFFF7E1FD606C401C08B9002094
:102590006064A06C401C08B90020A064FFF7E2FD55
:1025A00005A901A800F0A1FEC0B92046FFF783FFEE
:1025B00070B104F12400059900F0D1FD2046FFF729
:1025C0004DFE00F02FFA0028A1D1FFF7B4FD9EE7E1
:1025D0002046FFF743FE00F025FA98E72046FFF774
:1025E0003DFE00F01FFA0020B7E72DE9F047054651
:1025F000884616462C46FDF7CBFD8146A06BE8B118
:1026000041462046FFF764FFA06B401EA063606C4C
:10261000401C70B9206908B9012000E0002058B9B9
:1026200004F1100000F0F7FD30B12EB10120306050
:1026300002E0606C401C6064012700E0002748460F
:10264000FDF7ADFD3846BDE8F0872DE9F0470546BA
:1026500088462C46FDF79CFD8146A06B38B1E768A3
:1026600041462046FFF734FFE760012600E00026E0
:102670004846FDF794FD3046BDE8F08770B5044646
:10268000FFF763FDA56BFFF76DFD284670BD70B5C4
:1026900004462546FFF759FDD5E90E10461AFFF707
:1026A00061FD304670BD0146886B704770B50446C9
:1026B0002546286810B12868FFF791FC2846FFF7E7
:1026C0008EFC70BD0146C86C7047C16470470146FE
:1026D00091F85000704701468A6B0AB9012000E06A
:1026E0000020704701468A6BCB6B9A4201D10120D2
:1026F00000E000207047000010B5002407E004EB64
:102700008401FD4A02EB8100FFF79CFC641C032C52
:10271000F5D3FA48FFF796FCF948FFF793FCF94820
:10272000FFF790FCF848FFF78DFCF848FFF78AFCAC
:10273000F248F7490860F248F649086010BD2DE9F3
:10274000F04704460F4616469946DDF820800025DE
:1027500007E0795D04F134004155785D00B902E08D
:102760006D1C0A2DF5D300BF00213D200155032E1D
:1027700000D30226E662201DFFF771FC04F1180069
:10278000FFF76DFC2461C6F10300A0616462BDE83F
:10279000F08770B505460E464820FFF7C2FB044699
:1027A00094B11EB9A800FFF7BCFB00E030462063DF
:1027B000206B20B92046FFF712FC002404E0A9009A
:1027C000A522206B00F00CFE204670BD2DE9FF4FC6
:1027D00081B0074615469846DDE90E9A28461099BD
:1027E000FFF7D7FF0446002C52D0681E216B01EB87
:1027F000800B2BF0070B00954A462046119B02994F
:10280000FFF79DFF424639465846FFF769FC2060B6
:10281000BAF1000F01D0CAF80040FFF796FCBE489D
:102820000068401CBC490860BC48006840B9BB480F
:1028300004600846006801280CD1FFF75DFF09E03D
:10284000B748006830B9B5480068C06A484501D843
:10285000B2480460B3480068401CB24908600846AA
:102860000068206494F82C1001208840AE49096863
:102870000843AD490860E16A01EB81019E4A02EB21
:102880008100211DFFF7EEFB0126FFF76BFC01E045
:102890004FF0FF36012E04D1A148006808B19F48CF
:1028A0000068304605B0BDE8F08F994909680968AD
:1028B00009B9012100E0002121B14FF0FF319B4A0D
:1028C000116006E092490968C968C868974A41687A
:1028D0001160704770B50546FFF737FC15B98F4892
:1028E000006800E028460446201DFFF7E1FB78B9A8
:1028F000E06A00EB8000804951F8200040B994F86C
:102900002C1001208840884909688143864801606D
:10291000A06A18B104F11800FFF7CAFB211D7A481C
:10292000FFF7A0FB82480068401C814908607D4891
:102930000068401C7B490860FFF714FC7848006879
:1029400060B176480068844202D1FFF7F4FB05E0ED
:10295000FFF7FBFBFFF7A9FFFFF704FC70BD2DE9B4
:10296000F041002773480068002853D1724800687E
:10297000401C71490860084606688EB96448D0F862
:10298000008064480068624908606248C0F80080BE
:102990006A480068401C69490860FFF786FF00BF6D
:1029A00062480068864234D300BF59480068006816
:1029B00008B9012000E0002020B14FF0FF305B4952
:1029C000086025E052480068C068C4686568AE4287
:1029D00002D2564805601BE0201DFFF769FBA06A84
:1029E00018B104F11800FFF763FB94F82C100120D4
:1029F00088404D49096808434B490860E16A01EB8A
:102A000081013D4A02EB8100211DFFF72BFBCCE742
:102A100000BF04E04A480068401C49490860384645
:102A2000BDE8F08170B50025FFF78FFB41480068D5
:102A3000401E4049086008460068002846D13648D4
:102A40000068002842D024E02E48C068C46804F121
:102A50001800FFF72DFB201DFFF72AFB94F82C1020
:102A6000012088403049096808432F490860E16A1D
:102A700001EB8101204A02EB8100211DFFF7F2FAF0
:102A80002649E06A0968C96A884202D301202D49B3
:102A900008601C48006808B9012000E000200028F8
:102AA000D2D02748006878B10AE0FFF758FF10B18C
:102AB00001202449086022480068401E204908601F
:102AC0001F4800680028F0D11E480068FFF74AFB45
:102AD000284670BD10B5044610480068446016488A
:102AE0000068844230D20D480168091D0948006819
:102AF000FFF7C4FA35E00000C41C0020001D0020D0
:102B0000141D0020281D00203C1D0020501D002009
:102B10007400002078000020800000207000002059
:102B20008C0000209C00002088000020A0000020D5
:102B30007C000020A40000208400002098000020D9
:102B40009000002094000020FE480168091DFE4806
:102B50000068FFF793FAFD480068844201D2FB4801
:102B6000046010BDFA480068401CF94908607047CD
:102B70002DE9F047044688464FF00009FFF7F2FFC1
:102B8000F4480768206800EB08052068B84207D9B8
:102B90002068A8420BD9BD4209D94FF0010906E0CF
:102BA0002068A84201D8BD4201D94FF00109256033
:102BB000B9F1000F13D0E3480068001DFFF778FA61
:102BC00050B9E048006890F82C1001208840E24994
:102BD00009688143E04801602846FFF77BFFFFF763
:102BE00021FF06460EB9FFF7A6FABDE8F08770B5DB
:102BF00004460026DCB1FFF7B5FFD648006805198A
:102C0000D0480068001DFFF753FA50B9CD4800685E
:102C100090F82C1001208840CF4909688143CE48A4
:102C200001602846FFF756FFFFF7FCFE06460EB987
:102C3000FFF781FA70BD70B50446FFF786FA14B944
:102C4000C048006800E020460646F56AFFF78AFAA9
:102C5000284670BD2DE9F04780460D464FF000092B
:102C6000032D00D30225FFF770FAB8F1000F02D14F
:102C7000B448006800E040460446E66AAE4246D0EA
:102C8000B5420BD9AF48006884420DD0AD4800680A
:102C9000C06AA84208D84FF0010905E0A9480068B9
:102CA000844201D14FF00109E76AE562A06900F0B2
:102CB000004010B9C5F10300A06107EB8701A74AE6
:102CC00002EB81016069884201D1012000E000200F
:102CD000E0B1201DFFF7ECF930B90120B8409E4962
:102CE000096881439C48016094F82C1001208840B9
:102CF00099490968084398490860E16A01EB810134
:102D0000964A02EB8100211DFFF7ACF900BFFFF7E7
:102D100029FABDE8F0878E48006818B10120904973
:102D200008601DE000208E4908608B480068B0FAFA
:102D300080F0C0F11F0101EB8102884B03EB8200A0
:102D400042685268426000F108024368934202D12F
:102D50004268526842604268D2687A4B1A6000BF8B
:102D6000704770B50546FFF7F0F915B9754800686A
:102D700000E028460446201DFFF79AF978B9E06A7A
:102D800000EB8000754951F8200040B994F82C10F0
:102D9000012088407049096881436F480160A06A3A
:102DA00018B104F11800FFF783F9211D6D48FFF7F2
:102DB00059F9FFF7D7F963480068844212D16A488D
:102DC000006810B1FFF7B7F915E066480068674979
:102DD0000968884203D100205A4908600BE0FFF7D8
:102DE0009AFF08E06048006828B1FFF7AEF9FFF7E6
:102DF0005CFDFFF7B7F970BD10B5014600200A462B
:102E0000584C5369A34201D1012300E0002373B160
:102E1000574C936AA34201D1012300E0002333B948
:102E2000936A0BB9012300E0002303B1012010BD18
:102E300070B505462C461CB34248006884421FD03A
:102E4000FFF783F92046FFF7D7FF012816D1201D91
:102E5000FFF72EF994F82C10012088403E490968AC
:102E600008433D490860E16A01EB81013B4A02EBFE
:102E70008100211DFFF7F6F832480068FFF772F96C
:102E800070BD2DE9F041054600262C46FDF780F97E
:102E900007462046FFF7B0FF012824D12C480068E0
:102EA000E0B92849E06A0968C96A884200D3012666
:102EB000201DFFF7FDF894F82C10012088402649CA
:102EC0000968084324490860E16A01EB8101234A4B
:102ED00002EB8100211DFFF7C5F804E004F11801A1
:102EE0002348FFF7BFF83846FDF759F93046BDE8EB
:102EF000F08110B50446206BFFF771F82046FFF70C
:102F00006EF810BD70B541E0FFF72CFE194800685F
:102F100008B9012000E000200546FFF783FD6DBBE6
:102F2000FFF713F91348C068C468201DFFF7C0F805
:102F30000E480068401E0D4908600F480068401E9A
:102F40000D491CE07000002074000020A00000204B
:102F5000A40000208400002088000020C41C002061
:102F600094000020501D00208C00002080000020D4
:102F7000281D00203C1D00207C00002006E0086089
:102F8000FFF7F0F82046FFF7B4FF00BFF9480068EC
:102F90000028B9D170BD00BFFFF7B4FFFFF7CBF831
:102FA000FAE71FB5002000900190029003468022AE
:102FB000F1A10390F248FFF709FC0446012C09D166
:102FC000FDF7E6F80120EF4908600020EE490860AF
:102FD000FFF79BF81FBD10B5FDF7DAF80020E949AF
:102FE0000860FFF7A7F810BD10B5FFF7AEF8E64888
:102FF0000468FFF7B7F8204610BD70B5FDF7C8F8B4
:103000000546E14804682846FDF7C9F8204670BD2A
:10301000DE48006870470246002101E0521C491C4E
:103020001078A528FAD0890888B270472DE9F047B2
:1030300006460C4690460025206800284AD02046C7
:1030400041684968416000F1080142688A4202D142
:103050004168496841604168D1F80C9000BF204642
:1030600041684968416000F1080142688A4202D122
:103070004168496841604168CF6806EB45100760C8
:1030800007F1340006EB45114860386C06EB45113A
:10309000886006EB451080F80C80F86A06EB451155
:1030A0000861B8F1030F05D1B86A18B1022006EB28
:1030B00045110873002006EB4511486106EB4511E8
:1030C0008861386BFFF7A7FF06EB451188836D1CFD
:1030D0004F45C4D12846BDE8F0872DE9F0410546AB
:1030E0008846164600240327FFF73CFDA7480068E2
:1030F00080452FD300BF7F1E07EB8702A44B03EB55
:10310000820105EB44100122FFF790FF0444002FD9
:10311000F1D105EB441002229E490968FFF786FFB2
:10312000044405EB441002229B490968FFF77EFF27
:10313000044405EB441004229849FFF777FF044448
:1031400005EB441003229649FFF770FF04440EB1CB
:1031500000203060FFF766FC2046BDE8F08170B5C6
:1031600006460C468F48016818313046FEF786FF48
:103170008C480068001DFEF79BFF50B98948006825
:1031800090F82C10012088408749096881438648BF
:103190000160601C30B983480168091D8048FEF752
:1031A00061FF05E07848006805192846FFF792FCA2
:1031B00070BD2DE9F04107460D46144645F000402C
:1031C0007849096888617748016818313846FEF700
:1031D00049FF74480068001DFEF76AFF50B9714846
:1031E000006890F82C10012088406F4909688143DD
:1031F0006D480160601C30B96A480168091D684863
:10320000FEF730FF05E06048006806193046FFF71A
:1032100061FCBDE8F08170B50646F068C46804F151
:103220001800FEF745FF61480068A8B9201DFEF7A9
:103230003FFF94F82C10012088405B49096808433F
:1032400059490860E16A01EB8101514A02EB8100B2
:10325000211DFEF707FF04E004F118015448FEF7B2
:1032600001FF5049E06A0968C96A884204D901250A
:1032700001205049086000E00025284670BD2DE976
:10328000F04105460F4647F000402860EC682846AC
:10329000FEF70EFF201DFEF70BFF94F82C10012007
:1032A00088404149096808433F490860E16A01EBE9
:1032B0008101374A02EB8100211DFEF7D3FE394917
:1032C000E06A0968C96A884204D90126012039499F
:1032D000086000E000263046BDE8F0813649096804
:1032E0000160294909684160704770B504460D4680
:1032F000FEF72BFF244802682868401C08B9002606
:1033000019E02D4920680968884204D0606890421D
:1033100001D801260FE06068101A2968884209D296
:1033200028686168511A401A28602046FFF7D6FFC6
:10333000002600E00126FEF715FF304670BD012093
:103340001C4908607047014611B10A46506C00E004
:103350000020704708B1024651647047114909685E
:10336000886910490968C96AC1F103010D4A1268E8
:10337000916170477C00002049444C4509000000E1
:10338000972F00088C00002084000020800000207F
:10339000C41C002074000020780000203C1D002088
:1033A000501D00207000002088000020A400002094
:1033B000281D0020940000209800002040EA01030E
:1033C0009B0703D009E008C9121F08C0042AFAD2DB
:1033D00003E011F8013B00F8013B521EF9D270479F
:1033E000D2B201E000F8012B491EFBD27047002247
:1033F000F6E710B513460A4604461946FFF7F0FFF4
:10340000204610BD30B505462A460B4612F8010B82
:1034100013F8014B08B1A042F8D01CB1002802D02B
:103420006D1CF1E7284630BD421C10F8011B002935
:10343000FBD1801A7047000070B50F4D00B92868A5
:10344000002412E00A4602E09E4203D0521C137888
:10345000002BF9D1DAB2224305D02BB124B10021DF
:1034600000F8011B04E00446401C0678002EE9D158
:103470002860204670BD0000A80000202DE9FE4F06
:1034800081EA030404F0004421F0004100944FF06D
:10349000000B23F0004350EA01045ED052EA03041B
:1034A0005BD0C3F30A54C1F30A552C44A4F2F3349D
:1034B0000194A0FB0254C1F3130141F48011C3F342
:1034C000130343F4801301FB024400FB034E840A00
:1034D000970A44EA815447EA8357A4FB0768029598
:1034E0008D0A05FB07854FEA932C04FB0C54270536
:1034F000029D4FEA065847EA1637B5EB08056EEB12
:10350000070C870E920E47EA811742EA8312A7FB47
:103510000201B6EB0B0164EB00042B0D43EA0C3304
:103520005E1844EB1C50DA465146E7FB0201C5F336
:1035300013044FEA0B3343EA14534FEA0432019C5D
:1035400043EA0603A4F10C040294009CCDE900B404
:1035500000F03CF903B0BDE8F08F00200146F9E728
:103560002DE9F04D81EA030404F0004B21F0004501
:1035700014464FF0000A23F0004150EA050220D023
:1035800054EA01021DD0C5F30A570246C5F31303DE
:10359000C1F31300C1F30A5640F4801543F48013BD
:1035A000A7EB0608101BD64608F2FD3873EB0500A2
:1035B00002D308F1010801E092185B41B8F1000F55
:1035C00003DA00200146BDE8F08D00204FF48011A1
:1035D000064684460EE0171B73EB050705D3121B46
:1035E00063EB050306434CEA010C49084FEA30003F
:1035F00092185B4150EA0107EDD152EA030012D064
:1036000082EA040083EA0501084305D0101BAB41A0
:1036100006D20122002306E000224FF0004302E020
:103620006FF0010253101AEB06004CEB085110EB3F
:103630000A0041EB0B01BDE8F04D00F0BAB80EB541
:1036400040F2334102910021CDE900110A460B46B8
:1036500000F0BCF803B000BD00F0004230F00040C4
:103660000AD0C10D01F56071C0F3160042EA0151A4
:10367000C20840071143704700200146704701F01F
:10368000004330B421F0004150EA010206D00A0D97
:10369000A2F56072C1F31301002A02DC30BC0020E5
:1036A0007047440F44EAC104C100E01830BC00EB8D
:1036B000C25000F047B830B50B460146002020222A
:1036C000012409E021FA02F59D4205D303FA02F52F
:1036D000491B04FA02F52844151EA2F10102F1DC8F
:1036E00030BD2DE9F05F0546002092469B46884696
:1036F0000646814640241BE028464146474622466E
:1037000000F0A7F953465A46C01A914110D311460A
:103710001846224600F08EF92D1A67EB01084F4635
:1037200022460120002100F085F917EB00094E41E7
:10373000201EA4F10104DFDC484631462A464346F8
:10374000BDE8F09F0029A8BF7047401C490008BF92
:1037500020F00100704710B4B0FA80FC00FA0CF0C1
:1037600050EA010404BF10BC704749B1CCF12004F9
:1037700021FA04F411FA0CF118BF01212143084386
:10378000A3EB0C01CB1D4FEA00614FEA102042BFB2
:10379000002010BC704700EBC35010440029A4BFA8
:1037A00010BC7047401C490008BF20F0010010BC4D
:1037B000704710B5002B08DA401C41F10001921847
:1037C0005B411A4301D120F0010010BD2DE9F04DFD
:1037D00092469B4611B1B1FA81F202E0B0FA80F252
:1037E0002032904600F026F904460F4640EA0A00CF
:1037F00041EA0B0153465A46084313D0114653EA97
:10380000010019D0C8F14002504600F022F90546E7
:103810000E4650465946424600F00CF9084305D082
:10382000012004E020463946BDE8F08D0020054324
:1038300046EAE0762C4337430A986305E40AA0EB96
:1038400008000022FD0A44EA47540A3002D500204D
:103850000146E9E7010510196941DDE9084500194C
:103860006941BDE8F04DA4E72DE9FE4F804681EAAD
:103870000300C00F0C46009021F0004123F00045EA
:10388000B8EB0200A94105D24046214690461C46AD
:103890000B46024623F00040104347D0270DC7F3E4
:1038A0000A00C3F30A510290401A019040286BDAD3
:1038B000C3F3130040F4801B0098924620B100230C
:1038C000D2EB030A63EB0B0B01985946C0F140029F
:1038D000504600F0AFF806460D4650465946019A4C
:1038E00000F0C7F810EB08006141002487EA11528C
:1038F00084EAE7731A4340D0009A62B3019A012A1E
:103900004FEA075215DC001B61EB02014FF0004249
:1039100002EA0752CDE90042001C41F5801132460F
:103920002B46FFF753FF03B0BDE8F08F404621461A
:10393000F9E7001B61EB0201001C41F58013001840
:103940005B412018A2F5001747EB030140EAD57050
:10395000B6196D4111E06D084FEA360645EAC075AB
:103960004FEA0752001B61EB0201001C41F5801178
:1039700049084FEA30000019514132462B4603B046
:10398000BDE8F04FFFF715BF00980122400000236B
:10399000D0EB020263EBE073009821464FEAE0743B
:1039A000B8EB000061EB0401E9E783F000435BE75B
:1039B00081F0004158E7C1F30A52C1F3130140F20C
:1039C000FF3341F480119A4202DA00200146704729
:1039D00040F233439A42A2F2334202DC524200F0F8
:1039E00038B800F027B8000030B5002904DB4FF0EC
:1039F0000044404264EB0101002B04DB4FF0004423
:103A0000524264EB0303994208BF904230BD00006C
:103A1000064C074D06E0E06840F0010394E807001B
:103A200098471034AC42F6D3FCF768FB48440008D2
:103A300068440008202A04DB203A00FA02F1002042
:103A400070479140C2F1200320FA03F319439040DC
:103A50007047202A04DB203A21FA02F00021704747
:103A600021FA02F3D040C2F12002914008431946E6
:103A70007047202A06DBCB17203A41FA02F043EACE
:103A8000E07306E041FA02F3D040C2F12002914017
:103A900008431946704700000FB41CB50A46521E71
:103AA000CDE9000207A9054B6A46069800F0CAF85E
:103AB000009A002111701CBC5DF814FB73430008D0
:103AC00002E008C8121F08C1002AFAD170477047E7
:103AD000002001E001C1121F002AFBD17047000045
:103AE0002DE9FF5FDDE90220010DDDF838B002436A
:103AF00018D044F61050A1F2FF3141430D140F9835
:103B0000012820D0A5EB0B00401C5FEA000A4FF013
:103B10000004474EDFF81C91A046504616D5CAF166
:103B2000000728E00F98012443A2012808D00021B3
:103B300000980F9BC0E90021C0E90243BDE8FF9F48
:103B40006FEA0B01F4E7CBF10000DEE7074612E075
:103B5000F80707D02246334640464946FFF78EFC19
:103B6000804689462246334610461946FFF786FCB2
:103B700004460E467F10002FEAD1DDE90201BAF1BA
:103B8000000F42464B4602DAFFF778FC01E0FFF7F0
:103B9000E7FC04460E460022284BFFF725FF03D81A
:103BA0004FF0FF30014607E00022254B204631460A
:103BB000FFF75AFEFFF7FFFE102409E0002C0ADB96
:103BC0000A220023FFF78DFD019B30321A55641E37
:103BD00050EA0102F2D1641C019AC4F111031444A9
:103BE0000F9A012A03D0012208430DD10AE00843AD
:103BF00004D000204FF0110B0F9080E7A3EB0B05D2
:103C00006D1E0DE05B4504DD4FF0000205F101057E
:103C100004E003DA4FF00002A5F10105002AECD020
:103C200000980F99C0E90231C0E9004586E700001D
:103C3000000024400000F03F300000000000F0438E
:103C40000000E03F2DE9FF4F95B09B4689460646B0
:103C500000250FE2252877D100242746F84A0121C4
:103C6000059400E0044316F8013F203B01FA03F0FD
:103C70001042F7D130782A2811D06FF02F03307816
:103C8000A0F13002092A16D8059A44F0020402EB8A
:103C9000820203EB42021044761C0590EFE759F8CC
:103CA000042B0592002A03DA504244F40054059094
:103CB00044F00204761C30782E2816D116F8010F35
:103CC00044F004042A280DD06FF02F023078A0F1C0
:103CD0003003092B09D807EB870302EB4303C7180E
:103CE000761CF3E759F8047B761C30786C280FD0EB
:103CF00006DC4C2817D068280DD06A2814D104E0BF
:103D0000742810D07A280FD10DE044F400140AE092
:103D100044F4801401E044F440147278824202D1E9
:103D200004F58014761C761C307866280BD013DCE2
:103D3000582877D009DC002875D04528F6D04628C9
:103D4000F4D047281AD19DE118E0632835D06428C3
:103D500079D0652812D195E1702873D008DC6728E6
:103D6000F1D069286FD06E280DD06F2806D1B5E04C
:103D700073282CD0752875D0782874D05A46179996
:103D800090476D1C75E1C4F30250022809D0032846
:103D90000DD0D9F8001004280DD00D6009F10409E8
:103DA00067E1D9F80010EA17C1E90052F6E7D9F83F
:103DB00000100D80F2E70D70F0E719F8041B8DF884
:103DC000001000208DF80100EA46012003E059F8B8
:103DD00004AB4FF0FF3061074FF0000102D40DE05B
:103DE00008F101018846B9420FDA8045F8DB1AF87C
:103DF00008100029F4D108E008F101018846814249
:103E0000FADB1AF808100029F6D105985B46A0EBFA
:103E1000080721463846179A00F094FA284400EB28
:103E2000080507E04DE029E10DE01AF8010B5A46BC
:103E300017999047B8F10108F7D25B4621463846FA
:103E4000179A13E142E00A220092C4F302524FF0A3
:103E5000000A022A08D059F804CB032A4FEAEC7171
:103E60000AD00DE029E02AE009F1070121F007025C
:103E7000F2E802C1914609E00FFA8CFC4FEAEC71BE
:103E8000042A03D14FFA8CFC4FEAEC71002907DABF
:103E90000A460021DCF1000C61EB02012D2202E058
:103EA000220504D52B228DF80420012203E0E2072D
:103EB00001D02022F7E7904659E00A2102E01022C3
:103EC0000DE010214FF0000A00910BE010224FF09E
:103ED000000A44F004040827009203E008224FF08F
:103EE000000A0092C4F30252022A05D059F804CB0A
:103EF0000021032A08D009E009F1070121F0070297
:103F0000F2E802C1914605E01FFA8CFC042A01D1B7
:103F10000CF0FF0C4FF00008220728D5702806D0BF
:103F2000009B83F0100353EA0A0305D00EE0402201
:103F30008DF80420012208E05CEA010206D030225C
:103F40008DF804208DF8050002229046009B83F036
:103F5000080353EA0A030AD15CEA010201D16207AD
:103F600005D530228DF804204FF001087F1E582817
:103F700004D034A003900EA802900DE036A0F9E71B
:103F800053466046009AFFF7ACFB84460398825C78
:103F90000298401E029002705CEA0100F0D1029883
:103FA00006A9081A00F1200A600702D524F480341B
:103FB00000E00127574502DDA7EB0A0000E00020E2
:103FC00000EB0A01009005984144401A0590E00377
:103FD00006D45B462146179A059800F0B3F90544CC
:103FE000002706E001A85A46C05D179990476D1C4E
:103FF0007F1C4745F6DBE0030CD55B462146179A4C
:10400000059800F09FF9054404E030205A461799BE
:1040100090476D1C0099481E00900029F5DC08E0CF
:10402000029802995A460078491C029117999047C4
:104030006D1CBAF10001AAF1010AF1DC65E1000092
:10404000092801003031323334353637383961626E
:104050006364656600000000303132333435363732
:1040600038394142434445460000000000F058F909
:104070000544761C307800287FF4ECAD19B0284652
:10408000BDE8F08F620700D4062709F1070222F08D
:10409000070CFCE80223E14603F000485FEA080C45
:1040A00002D00FF2702C0DE05FEA045C02D50FF233
:1040B000682C07E05FEAC47C02D00FF2602C01E0BC
:1040C000AFF2700C4FF0FF3823F00043CDF850C032
:1040D00065280CD006DC452809D046281DD0472885
:1040E0003DD13DE0662818D067287ED138E0002118
:1040F000112F01DB112000E0781CCDE9000106A999
:104100000EA8FFF7EDFCDDE90F010E9A03910021E7
:10411000009207F1010A04914DE04FF00040009732
:10412000CDE9011006A90EA8FFF7DAFCDDE90F02C0
:1041300003920E9B11990022DDF80CA000930492CB
:1041400011B9791C00EB010AB7EB0A0004D4C0F1E5
:10415000FF3007F1010A0490AAEB0700019044E048
:10416000012F00DA01270021112F01DD112000E0CD
:104170003846CDE9000106A90EA8FFF7B1FCDDE93C
:104180000F010E9A0391002104910092BA46210773
:104190000CD40399514500DA8A46BAF1010F05DDC6
:1041A000009AAAF10101515C302908D0B84202DA24
:1041B00010F1040F06DA0121CDE9011015E0AAF192
:1041C0000101E9E7002805DC049901440491AAEB08
:1041D000000102E0411C514500DD8A460499401A65
:1041E000401C01904FF000400290200704D4019839
:1041F000504501DBCDF8048000208DF84F00029877
:104200000DF14F07B0F1004F25D02B200E900298F2
:104210004FF0020800280CDA404202902D200E9048
:1042200007E00A210298FFF746FA3031029007F8BA
:10423000011DB8F10001A8F10108F2DC0298002884
:10424000EFD1791E0E980870307800F0200040F011
:10425000450007F8020D12A8C01B00F107081498CA
:10426000007800B1012000EB0A01019801EBE07138
:1042700005984144401A401E0590E00306D45B4671
:104280002146179A059800F05DF8054414980078C7
:1042900018B15A46179990476D1CE00324D55B4628
:1042A0002146179A059800F04DF805441CE0049843
:1042B000002807DBDDE90301884203DD0098405C4C
:1042C000179901E0179930205A469047049805F154
:1042D0000105401C04900198401E019004D12E203D
:1042E0005A46179990476D1CBAF10001AAF1010ACC
:1042F000DDDC05E017F8010B5A46179990476D1C55
:10430000B8F10001A8F10108F4DC5B462146179AD8
:104310000598ABE62D0000002B00000020000000F7
:104320002DE9F041044600251E461746880404D4B2
:1043300005E039462020B0476D1C641EF9D528469B
:10434000BDE8F0812DE9F041044600251E46904667
:10435000C80301D5302700E02027880404D505E0F4
:1043600041463846B0476D1C641EF9D52846BDE865
:10437000F0814A68002A06D00A68531C0B6010704E
:104380004868401E48607047474554202F696F7445
:104390002F64617461636F6C6C656374696F6E2EFA
:1043A000646F3F69636369643D2573266261747459
:1043B0006572793D256620485454502F312E310ABC
:1043C000486F73743A20696F742E6F7361706C69F3
:1043D0006E672E636F6D0A557365722D4167656E4A
:1043E000743A207873780A4163636570742D4C6168
:1043F0006E67756167653A207A682D434E2C7A683E
:104400003B713D302E382C656E2D55533B713D3040
:104410002E352C656E3B713D302E330A436F6E6E28
:10442000656374696F6E3A206B6565702D616C69A8
:1044300076650A0A000000004D61696E0000000008
:10444000556E6976000000006844000800000020F6
:10445000AC000000C03A000814450008AC00002081
:10446000BC200000D03A000800000000000000005E
:10447000000000003844000840440008000000002C
:10448000000000000048E801030406080C10182092
:1044900030000000000000000001020304060708CD
:1044A00009030406080C1018203000000000010267
:1044B00003040102030406070809000000000000CD
:1044C00000000000000000000000000000000000EC
:1044D00000000000AAAAAAAA000000000000000034
:1044E00000000000000000000000000000000000CC
:1044F00000000000000000000000000000000000BC
:104500000000000000000000FFFFFFFF00000000AF
:0445100000000000A7
:04000005080000F5FA
:00000001FF
